:400000000010002011000000690A0000690A000080B500AF00F032FD80B500AF134B134A12688021C9020A431A60242001F036FB0F4B104A1A60104B10221A600F4B202213
:400040001A600F4B822212061A60084B8022D2021A600C4B802212061A600B4B0B4A1A600B4B00221A60C046BD4680BD00010B4004010B40060000800C0202401C02024079
:4000800008010B400000024040000240030000800C020B4080B582B000AF72B6444B01221A70FB1D00221A7022E0FB1D1A7813005B009B185B003F4A9B183B603B681A78DA
:4000C000597809020A43997809040A43DB781B06134318003B681A795B791B0213439BB2190000F0D1FBFB1D1A78FB1D01321A70FB1D1B78012BD8D92F4A304B11001800C7
:4001000000F0D2FB2E4B2F4A1A602F4BC022D2051A602E4BEE2212021A602D4B992212041A602C4B992212041A602B4B802212061A602A4B992212041A60294B992212049E
:400140001A60284B05221A60274B06221A60274A264B1B78DBB23C218B43DBB214210B43DBB21370224A224B1B78DBB216210B43DBB213701F4B20221A601F4B1F4A1A608F
:400180001F4B20221A601F4B21221A601E4BA1221A601E4BDB2212011A601D4B1D4A1A60FFF73AFF00F0C2FBC046BD4602B080BD1C700F40BC230000E4230000C823000090
:4001C000000001400000FFFF040001400C00014000500F4010500F4018500F4020500F4030500F402000004000800F4001700F4000700F4000000440080004400110270025
:400200001800044000010440180104400802044008030440800D230010B5064C2378002B07D1054B002B02D0044800E000BF0123237010BD4801002000000000B8230000BE
:40024000084B10B5002B03D00749084800E000BF07480368002B00D110BD064B002BFBD09847F9E7000000004C010020B8230000C80000200000000090B585B000AF62B62F
:400280002D4B1B78012B22D10023BB6000F00AFA00F000F900F048FE00F0C8FE022000F061FEBC1D002000F09BFE030023803B1D00229B5E180000F0DDFF0300BB6000F00F
:4002C00041FE002000F068FA031C3B60F9E71A4B1B78002B2BD10F23FB1800221A7000F02DF80F23FC1800F0A9F8030023700F23FB181B78002BF4D00F23FB181B78012B56
:4003000007D100F027F800F0A3F80F23FB1800221A700F23FB181B78022BE2D100F03AF800F096F80F23FB1800221A70D9E701231800BD4605B090BD6401002080B500AFA7
:4003400000F064FF01F062FB01F0CEFBC046BD4680BDC04680B500AF002001F057F81E2001F040FB012000F0D9FFFF2000F060FF064B1B785BB2022213435AB2034B1A7082
:40038000034B01221A70C046BD4680BD900100208801002080B500AF002000F0BFFF002000F046FF1E2001F01DFB012001F02EF8064B1B785BB2022293435AB2034B1A704D
:4003C000034B00221A70C046BD4680BD900100208801002080B582B000AF0200FB1D1A70FB1D1B78012B0FD002DC002B05D020E0022B10D0032B15D01BE0002000F0B6FF35
:40040000002000F0DBFF14E0012000F0AFFF002000F0D4FF0DE0002000F0A8FF012000F0CDFF06E0012000F0A1FF012000F0C6FFC046C046BD4602B080BDC04680B500AF66
:40044000024B1B78DBB21800BD4680BD8901002080B500AF024B00221A70C046BD4680BD8901002080B500AF034B01221A7001F031FBC046BD4680BD8901002080B500AF70
:40048000034B02221A7001F093FBC046BD4680BD8901002080B500AF00F0FAFF094B00221A70094B00221A700B2001F063FA074B04221A6001F074F801F02CF8C046BD461E
:4004C00080BDC0469402002091010020C80F0740B0B582B000AF05000C0010001900FB1D2A1C1A70BB1D221C1A707B1D021C1A703B1D0A1C1A70FB1D1B781A06BB1D1B78AD
:400500001B041A437B1D1B781B021A433B1D1B781A43034B1A60C046BD4602B0B0BDC0468C01002080B582B000AF354B1A68FB1D1A70FB1D1B78082B5BD100F0CBFF03002E
:40054000DAB2304B1A7000F0D5FF0200BB1D1A702D4B1A68FB1D1A702C4B1A68FB1D1A70284B1B78A12B2ED101F01AF8284B1B681B0E1B061B16DAB2264B1A70244B1A68CE
:40058000FF231B0413401B14DAB2224B5A70204B1A68FF231B0213401B12DAB21D4B9A701B4B1B68DAB21B4BDA701A4B0421180000F0DCFF184B1B785BB2012293435AB271
:4005C000154B1A7010E00F4B1B78A02B0CD100F0E7FF114B1B785BB2DAB20E4B1A700D4B0121180000F0C2FF00F094FF0B4B04221A60FB1D00221A70C046BD4602B080BDD3
:40060000000E0740140200204C0F0740C80F07408C0100209401002090010020C00F074080B584B000AF0200FB1D1A700F23FB1800221A700023BB60002000F033FD0020FB
:4006400000F066FD1E2001F0CDF9154B01221A600F23FB1800221A7015E000F065FC022000F080FC002000F0BBFC03001A00BB689B18BB6000F066FC0F23FB181A780F2340
:40068000FB1801321A700F23FB181A78FB1D1B785BB29A42E1DBBB681800BD4604B080BD10021A4080B500AF00F0E6FA00F0AEFD00F090FA00F0CEFA00F0D6FC00F00AFD6E
:4006C0004020FFF7ADFF03001AB2064B1A80064B1B785BB2042213435AB2034B1A70C046BD4680BD660100209001002090B585B000AF7860786801F0A3FD03001AB20E23FD
:40070000FB181A802249786801F086FC031C181C01F096FD03001BB299B20E23FB181B881C4A53439AB20C23FB188A181A800E23FB181B881B0A9AB20B23FB181A700A235F
:40074000FB180E22BA1812881A700C23FB181B881B0A9AB20923FB181A700823FB180C22BA1812881A700823FB181C780923FB181A780A23FB1819780B23FB181878230057
:40078000FFF7A6FE7B68181CBD4605B090BDC04600007A4418FCFFFF80B586B000AF0200FB1D1A7000233B61012000F07BFC012000F0AEFCFB1D1B781800FFF70BFEFFF735
:4007C000C9FD2E4B1B785BB2022213435AB22B4B1A70642001F006F9294B01221A601723FB1800221A7015E000F09EFB022000F0B9FB002000F0F4FB03001A003B699B185F
:400800003B6100F09FFB1723FB181A781723FB1801321A701723FB181B783F2BE4D9194B1B881BB21A003B699B1A3B61FFF7B2FD124B1B785BB2022293435AB20F4B1A7033
:40084000386901F01FFD031C8521C905181C01F0C9FA031CFB60FB68181CFFF747FF031CBB60064B1B785BB2012213435AB2034B1A70BB68181CBD4606B080BD900100207C
:4008800010021A406601002080B582B000AF786039603A687B680021180001F085FDC046BD4602B080BDC04680B586B000AF7860396000233B6100237B612FE07B699B00B8
:4008C0007A68D3181B68BB600F23FB18BA681A70BB68FF229343BB6018E03B695B003A68D3181B781A00BB68D31819003B695B003A68D3185B780B703B6901333B610F238F
:40090000FB181A780F23FB18013A1A700F23FB181B78002BE1D17B6901337B617B69062BCCD9C046BD4606B080BDC04680B500AF0B4B8822D2021A600A4B842212031A60E7
:40094000094B0C221A60094B094A1A60094BC32212041A60012000F00FF8C046BD4680BD8000104088001040C000104000031A400000430240031A4080B584B000AF020022
:40098000FB1D1A700B4B1B68FB60FB1D1B78002B05D0FB68802212061343FB6003E0FB685B005B08FB60034BFA681A60C046BD4604B080BD80031A4080B582B000AF020070
:4009C000FB1D1A70FB1D1B78012B00D003E0044B04221A60C046C046BD4602B080BDC0468000104080B582B000AF0200FB1D1A70FB1D1B78012B00D003E0044B04221A60D5
:400A0000C046C046BD4602B080BDC0468400104080B582B000AF0200FB1D1A70FB1D1B78012B00D003E0044B02221A60C046C046BD4602B080BDC0468800104080B582B06A
:400A400000AF0200FB1D1A70FB1D1B78012B00D003E0044B02221A60C046C046BD4602B080BDC0468C00104080B500AF01F070FC03001B680C2B00D1FEE7FEE780B586B0C8
:400A800000AF224B7B61224B3B61204B7B6135E03B691B68FB603B695B68BB603B699B683B6000237B600CE0FB681A68BB681A60BB680433BB60FB680433FB607B680433A3
:400AC0007B607A683B689A42EED13B69DB683B6000237B6008E0BB6800221A60BB680433BB607B6804337B607A683B689A42F2D13B6910333B617B69013B7B617B69002BB8
:400B0000C6D101F02BFCFFF7B7FBFEE7010000004425000080B582B000AF00237B600FE07B68032B04D8104B7A689200D35800E00E4B0F4A796889008B507B6801337B605C
:400B40007B682F2BECD9FFF7A5FA0A4B00221A608023DB058022D205126801210A431A60C046BD4602B080BD00000000690A000000000020C000002080B500AF074B0222C9
:400B80001A60074B802212061A60064B00221A60054B02221A60C046BD4680BD6C0100200000104004001040080F104080B500AF064A064B1968064B1B680B4380210901A9
:400BC0000B431360C046BD4680BDC046040010406C01002080B500AF064B1B78002B04D1FFF7CAFF034B01221A70FFF7DFFFC046BD4680BD6801002080B500AF074B022288
:400C00001A60074B802212061A60064B00221A60054B03221A60C046BD4680BD740100200000104008001040140F104080B500AF064A064B1968064B1B680B43802109010F
:400C40000B431360C046BD4680BDC046080010407401002080B500AF064B1B78002B04D1FFF7CAFF034B01221A70FFF7DFFFC046BD4680BD7001002080B500AF064B1B7885
:400C8000002B04D100F00AF8034B01221A7000F035F9C046BD4680BD7801002080B584B000AF03210E2000F011FE754B19000E2000F0E6FD734B01221A60734B1B68002B40
:400CC00001DA724900E07249724B724A12680A431A60714B714A1A60714B724A1A60724B00221A60714B724A1A60724B704A1A60714B714A1268802149020A431A606F4B8C
:400D00006E4A1268802149020A431A606C4B00221A606C4B00221A606B4B11221A606B4B02221A606A4B1B687B607B68694A13407B607B68012213437B60654B7A681A6057
:400D40000023FB6094E0644BFA689200D258DC239B0113407B60614AFB68D3181B781A007B6813437B60FB68002B2BD1FB689B005B4A944663447A681A60574BFA68920091
:400D8000D358012213400AD04D4B4D4A11680120FA68904002001204120C0A431A604E4BFA689200D358022213402BD0454B454A11680120FA68904002001204120C0A4328
:400DC0001A601FE0474B7A688021C9050A431A60414BFA689200D3580122134005D03A4B394A126820210A431A603B4BFA689200D3580222134005D0334B334A1268402189
:400E00000A431A60344BFA689200D25880239B00134003D080235B00BB6002E080235B01BB602D4BFA689200D25880235B00134005D12D4BFA6852000021D15204E02A4B4F
:400E4000FA6852000021D152BB68284A5343284A944663442749180000F0D8FE03001BB21900254BFA689200D150FB680133FB60FB68012B00D866E7C046BD4604B080BD00
:400E80004910000020001A4080031A40702010107020001000001A4004001A404C00008018001A40000002081C001A4010001A400200020014001A4000031A4040031A40E6
:400EC00028021A4038021A4018021A40000F1A4030001A40FFFFFFDF202400002824000080001A4080021A40A002002010270000E40C0000C81900009802002080B500AFE9
:400F0000084B1B68002B09DB064B064A1268802109060A431A600A2000F064FDC046BD4680BDC04600001A4080B500AF044B044A1268802149020A431A60C046BD4680BD25
:400F400004001A4080B500AF044B044A126804490A401A60C046BD4680BDC04604001A40FFFFFEFF80B584B000AF78600023FB607B680322134011D0184B1B68012213405C
:400F8000FB60FB68002B03D17B6802221340F3D1FB68002B02D0114B01221A607B680C22134015D00D4B1B6810221340FA681343FB60FB681022134003D17B680822134025
:400FC000F0D1FB681022134002D0044B10221A60FB681800BD4604B080BDC04610021A4080B584B000AF78607B68012B02D9002000F0ECFC7B68002B09D17B689B00094A0F
:40100000944663441B681B041B0CFB6004E0064B1B681B041B0CFB60FB681BB21800BD4604B080BD80011A4090021A4080B500AF044B044A1268802109060A431A60C04637
:40104000BD4680BD80021A4080B582B000AF054B1B687B60034B7A681A60C046BD4602B080BDC04610021A4080B582B000AFFB1D00221A7009E0FB1D1B781800FFF7B2FC52
:40108000FB1D1A78FB1D01321A70FB1D1B78012BF1D9034BFF221A70C046BD4602B080BDCC00002080B582B000AF0200FB1D1A70FFF7DAFFFB1D1B781800FFF77DFC044B29
:4010C000FA1D12781A70C046BD4602B080BDC046CC00002080B582B000AFFB1D00221A7009E0FB1D1B781800FFF7A8FCFB1D1A78FB1D01321A70FB1D1B78012BF1D9034B4D
:40110000FF221A70C046BD4602B080BDCD00002080B582B000AF0200FB1D1A70FFF7DAFFFB1D1B781800FFF773FC044BFA1D12781A70C046BD4602B080BDC046CD00002009
:4011400090B583B000AFFC1D00F048FD03002370174B1B680F2293433B60164B1B78DBB21A000F2313403A6813433B60104B3A681A60114B104A12681A60104B0F4A1268DB
:401180000F490A401A600C4B0B4A12688021C9000A431A60094B094A12681A60FB1D1B78180000F01FFDC046BD4603B090BDC04600FF084060F1FF0F080008400400084001
:4011C000FFFFFEFF90B583B000AFFC1D00F006FD030023700B4B0B4A1268C02189000A431A60094B084A1268802109060A431A60FB1D1B78180000F0F5FCC046BD4603B0DE
:4012000090BDC046080008400400084080B500AF064B1B68002B04D1FFF792FF034B01221A60FFF7CFFFC046BD4680BD7C01002090B585B000AF78600F23FC1800F0CEFCED
:40124000030023700A4B1B68FF2293431A007B681343BB60064BBA681A600F23FB181B78180000F0BFFCC046BD4605B090BDC0460800084080B588B000AF7860234B1B88AD
:401280009BB21BB2BB61224B1B889BB21BB27B617B687A695A43BB699B02D3183B613B691C4A93420EDD3B69C822D203D31A00D50F331B11DB005521180000F0A7FC0300EB
:4012C000FB610FE03B69A022920394466344002B00DA0F331B11DB003721180000F096FC0300FB613A69FB69D3188022120294466344FB60FB68002B02DA074A94466344C8
:401300001B141800BD4608B080BDC04666F1FF0F64F1FF0FFFFF0E00FFFF000080B584B000AF0200FB1D1A700F4B1B68DAB20F23FB1820218A431A70FB1D1B785B01DBB200
:4013400020221340D9B20F23FB180F22BA1812780A431A70044B0F22BA1812781A60C046BD4604B080BDC0460003044080B584B000AF0200FB1D1A700F4B1B68DAB20F23B0
:40138000FB1804218A431A70FB1D1B789B00DBB204221340D9B20F23FB180F22BA1812780A431A70044B0F22BA1812781A60C046BD4604B080BDC0460002044080B584B019
:4013C00000AF0200FB1D1A700F4B1B68DAB20F23FB1808218A431A70FB1D1B78DB00DBB208221340D9B20F23FB180F22BA1812780A431A70044B0F22BA1812781A60C0464C
:40140000BD4604B080BDC0460002044080B584B000AF0200FB1D1A700F4B1B68DAB20F23FB1802218A431A70FB1D1B78DB18DBB202221340D9B20F23FB180F22BA18127889
:401440000A431A70044B0F22BA1812781A60C046BD4604B080BDC0460002044080B500AF00F0B4F8C046BD4680BDC04680B500AF064B064A1268802109060A431A6000F0C7
:4014800019F800F01FF8C046BD4680BD0000074080B500AF064B1B78002B04D1FFF7DEFF034B01221A70FFF7E1FFC046BD4680BD8001002080B500AF0B2000F05BFAC046DA
:4014C000BD4680BD80B500AF00F0DAF8C046BD4680BDC04680B582B000AF00237B60044B1B687B607B681800BD4602B080BDC0464003074080B582B000AF054B1B680F2262
:4015000013407B607B681800BD4602B080BDC0460803074080B500AF074B074A1268802149020A431A60044B034A126803490A401A60C046BD4680BD04030740FFFFFEFFCF
:4015400080B582B000AF7860C046064B1B680F221340082BF9D0044B7A681A60C046BD4602B080BD080207404002074080B584B000AF786039600023FB6009E07A68FB6871
:40158000D3181B781800FFF7DBFFFB680133FB60FA683B689A42F1D3C046BD4604B080BD80B500AF074B074A1268802149020A431A60044B034A126803490A401A60C04654
:4015C000BD4680BD04020740FFFFFEFF80B500AF1B4B1C4A1A601C4B01221A601B4B1C4A1A601C4B07221A601B4B194A1A601B4B00221A600B2000F0D3F903210B2000F07A
:4016000065F9174B19000B2000F03AF9154B00221A60154B00221A60144B00221A60144B00221A60134B04221A60134B00221A60114B1B689AB2114B1A80C046BD4680BD36
:40164000000007400F000001200007400003074007010080040307400002074004020740ED1B0000880E0740C80E0740480F0740080F0740C80F0740880F07408201002059
:4016800080B500AF034B044A12881A60C046BD4680BDC046880F07408201002090B585B000AF78600C23FC1800F098FA030023707B68022B00D8AFE07B68302B00D9ABE054
:4016C0005C4B1B78DBB21A007B689A420AD35A4A0F23FB1812781A70584A0E23FB1812781A703FE0564B1B78DBB21A007B689A420AD3544A0F23FB1812781A70524A0E231C
:40170000FB1812781A702DE0504B1B78DBB21A007B689A420AD34E4A0F23FB1812781A704C4A0E23FB1812781A701BE04A4B1B78DBB21A007B689A420AD3484A0F23FB18E8
:4017400012781A70464A0E23FB1812781A7009E0444A0F23FB1812781A70434A0E23FB1812781A707B68DA1E0B23FB183F498A5C1A700B23FB181B782F2B0DD97B682A2B58
:401780000AD93B4B19221A60052000F01DFA0D23FB1819221A7007E0354B1B68DAB20D23FB183F210A401A700B23FA180D23FB1812781B789A4208D22D4B7A68033A2B4989
:4017C0008A5C1A60052000F0FFF92A4B7A6826498C4662441278D2B21A60274B0F22BA1812781A60254B0E22BA1812781A60052000F0F8F80B23FA180D23FB1812781B7822
:401800009A420CD91A4B7A68033A18498A5C1A60052000F0D9F902E0002000F0D7F80C23FB181B78180000F0DDF9C046BD4605B090BDC046C0F1FF0FC1F1FF0FC2F1FF0FF6
:40184000C3F1FF0FC4F1FF0FC5F1FF0FC6F1FF0FC7F1FF0FC8F1FF0FC9F1FF0FCAF1FF0FCBF1FF0FCCF1FF0FCDF1FF0F2C2400002CFF0B4028FF0B401CFF0B4020FF0B40D3
:4018800080B584B000AF02003960FB1D1A7080239B05FB60FB1D1B781F2B02D9002000F095F8FB1D1B7810339B00FA68D3181B68BB60FB1D1B7810339B00FA68D3183A68DC
:4018C0001A60BB681800BD4604B080BD90B587B000AF0200FB1D1A70BB1D0A1C1A70BB1D1B78032B02D9002000F070F8FB1D1B781F2B02D9002000F069F8FB1D1B780322EB
:401900001340DB0006337B611323FC1800F066F903002370FB1D1B789B08DBB29B00144A944663441B68FB6003227B699A401300DA43FB681340FB60BB1D1A787B699A40B6
:401940001300FA681343FB60FB1D1B789B08DBB29B00074A94466344FA681A601323FB181B78180000F03EF9C046BD4607B090BD00E400E080B582B000AF0200FB1D1A7077
:40198000064BFA1D12781F210A40012191400A001A60C046BD4602B080BDC04600E100E080B582B000AF0200FB1D1A70064BFA1D12781F210A40012191400A001A60C046C2
:4019C000BD4602B080BDC04680E100E080B582B000AF0200FB1D1A7001BEC046BD4602B080BDC04680B582B000AF0200BB1D1A80BB1D1B88044A12785343180000F0E4F8E0
:401A0000C046BD4602B080BDD800002080B500AF00F056F8054B180000F012F8032000F01DF800F043F8C046BD4680BD311A000080B500AFFEF716FDC046BD4680BDC04616
:401A400080B582B000AF7860034B7A689A64C046BD4602B080BDC0460000002090B585B000AF0200FB1D1A701623FB600B23FC1800F0B4F8030023700A4B0A4A12680A49E1
:401A80001140FA1D1078FA68904002000A431A600B23FB181B78180000F0A4F8C046BD4605B090BD00E400E0FFFF3FFF80B500AF024B04221A60C046BD4680BD00E100E0E0
:401AC00080B500AF024B04221A60C046BD4680BD80E100E080B500AF024B04221A60C046BD4680BD80E200E080B500AF00F056F8054B180000F012F8032000F01DF800F099
:401B000043F8C046BD4680BD0D1B000080B500AFFEF7B4FCC046BD4680BDC04680B582B000AF7860034B7A681A64C046BD4602B080BDC0460000002090B585B000AF020042
:401B4000FB1D1A700623FB600B23FC1800F046F8030023700B4B0B4A1268C0218A431100FA1D1078FA68904002000A431A600B23FB181B78180000F035F8C046BD4605B0F4
:401B800090BDC04600E400E080B500AF024B01221A60C046BD4680BD00E100E080B500AF024B01221A60C046BD4680BD80E100E080B500AF024B01221A60C046BD4680BDD0
:401BC00080E200E0000000000230800804D0C0460138FDD1C046C046C0467047EFF3108072B6704780F310887047C04680B500AF054B1B68002B02D0034B1B689847FEF7CD
:401C000091FCC046BD4680BD8401002003460B437FD4002243088B4274D303098B425FD3030A8B4244D3030B8B4228D3030C8B420DD3FF22090212BA030C8B4202D3121266
:401C4000090265D0030B8B4219D300E0090AC30B8B4201D3CB03C01A5241830B8B4201D38B03C01A5241430B8B4201D34B03C01A5241030B8B4201D30B03C01A5241C30AF5
:401C80008B4201D3CB02C01A5241830A8B4201D38B02C01A5241430A8B4201D34B02C01A5241030A8B4201D30B02C01A5241CDD2C3098B4201D3CB01C01A524183098B42B3
:401CC00001D38B01C01A524143098B4201D34B01C01A524103098B4201D30B01C01A5241C3088B4201D3CB00C01A524183088B4201D38B00C01A524143088B4201D34B004C
:401D0000C01A5241411A00D201465241104670475DE0CA0F00D04942031000D34042534000229C4603098B422DD3030A8B4212D3FC22890112BA030A8B420CD389019211C0
:401D40008B4208D3890192118B4204D389013AD0921100E08909C3098B4201D3CB01C01A524183098B4201D38B01C01A524143098B4201D34B01C01A524103098B4201D322
:401D80000B01C01A5241C3088B4201D3CB00C01A524183088B4201D38B00C01A5241D9D243088B4201D34B00C01A5241411A00D20146634652415B10104601D34042002BA1
:401DC00000D54942704763465B1000D3404201B5002000F005F802BD0029F8D016E770477047C046F0B5564644465F464D46F0B444024600C70F83B08846650A360EBA46C2
:401E00003DD0FF2E22D00023EC00802599469B46ED0425437F3E43465C025800DB0F640A000E984636D0FF2830D080230021E400DB041C437F38301A019048464246084363
:401E4000724E800030587A4013008746002D44D108239946063B9B46DDE70122FF2000241A406402C305640AD2071C431443200003B03CBC90469946A246AB46F0BD002DB0
:401E800020D104239946033B9B46C4E7002C17D1022102E0002C0AD10121321A01924A4643460A435A48920082587B409746200000F030FA431F76309C4040420021BAE7D2
:401EC0000321B8E7280000F025FA431F9D4000237630464299469B469DE70C239946093B9B4698E780240022E403FF20B9E70024C2468B465A465346022AAED0032A7DD09C
:401F0000012A31D1012200201A400024A9E70122101A1B2856DD1A4000200024A1E78023DB031D424BD18023DB032B435C02640A3A00FF2095E76D016001854230D2019A7B
:401F40000024013A01921B220127290064006D00002901DBA84201D82D1A3C43013A002AF3D16A1E95412C4301987F300028CEDD620704D00F222240042A00D00434220148
:401F800003D5244A019814408030FE2800DD64E70122A401640AC0B21A4062E72C00A9E72D1A1A220124CFE76B02BCD500248023DB031C436402640A4246FF2051E71C4278
:401FC000B3D1F4E721002022C140101A8440621E94410C43620704D00F222240042A00D00434620104D5012201201A40002438E70122A401640A1A40002032E78023DB031F
:402000001C436402640A5246FF202AE75C2400009C240000FFFFFFF7F0B557464E4645464300E0B446028846760A1F0EC40F002F47D0FF2F25D0002380259A469946F600BD
:40204000ED042E437F3F434642465D02D20F5B006D0A1B0E904640D0FF2B39D080220020ED00D20415437F3BFB1842465746591C62408C4607430F2F5CD86F49BF00C959CE
:402080008F46002E45D108239A46063B9946DAE7424602282DD0032800D1C3E0012800D0A2E0002500260240D4B27602ED05760A2E43E407264330001CBC90469946A246EB
:4020C000F0BD002E1AD104239A46033B9946BAE72A00511E8A41901CC6E70120002DC3D0280000F017F9431F76309D4043420020BAE70124FF2514400026D6E7300000F0C4
:4021000009F9431F9E400023763047429A46994699E70C239A46093B994694E780260024F603FF25C1E735004846B2E7350022004846AEE72904090C0800370C3604360CB1
:402140002C0C7943704367437443060C64183619B14203D980214902884647440004000C310409188D01681E8541890E2943350CED19AD010D43290104D5012369081D40E9
:4021800063460D4319007F31002925DD680704D00F202840042800D00435280103D5274980330D401900FE29A3DC0124AD016E0A1440CDB279E78020C003064207D00542AC
:4021C00005D128434602760A4446FF256DE706437602760AFF2568E70124611A1B2905DD14400025002660E76346CBE72E002023CE40591A8D406B1E9D412E43730704D034
:402200000F233340042B00D00436730104D5012401251440002648E70124B601760A1440002542E780260124F6032E437602760A1440FF2539E7C046DC240000FFFFFFF7C2
:402240004302590A4300C20F1B0E00207E2B0EDD9D2B0DDC802000040143952B0BDC9620C31AD9400B005842002A00D118007047034BD018FBE7963B99400B00F3E7C046BD
:40228000FFFFFF7F70B5002830D0C317C5185D40C40F280000F03EF89E231B1A962B0DDC9622D21A95406A02520AD8B25202C005520AE40702432243100070BD992B19DC75
:4022C0009922D21A9540124A2A40690704D00F210D40042D00D00432510103D50C4B1A409F231B1A9201520AD8B2DFE7002400200022DBE705222E00121AB921D6402A00D0
:40230000C91A8A40551EAA4135001543DBE7C046FFFFFFFB1C2101231B04984201D3000C10391B0A984201D3000A08391B09984201D30009043902A2105C40187047C04667
:4023400004030202010101010000000000000000014B18687047C046440100200E4B70B500251E000D4CE41AA410A54204D0AB00F35898470135F8E700F0D2F8084B0025BD
:402380001E00084CE41AA410A54204D0AB00F35898470135F8E770BD2C2500002C2500002C2500003425000003008218934202D019700133FAE770470000000000300F40C3
:4023C000000400400F40000404300F4002310F4003330F4006400F4007410F4002420F4006430F4038823E4158045F0118011A80AA40B401E68003406B406C02C010DA8032
:40240000DC2062208802A220A402AA20D840EE806C40DC020E018A01B440C201E601EC08000500000004000012700000030405060708090A0B0C0E0F101112131415161797
:4024400018191B1C1D1E1F2021222325262728292A2B2E2F3031323334350000361F00005A1E0000181F0000F01E0000181F0000E41E0000181F0000F01E00005A1E000068
:402480005A1E0000E41E0000F01E00009C1F00009C1F00009C1F00001E1F00005A1E00005A1E0000041F0000EE1E0000041F0000E41E0000041F0000EE1E00005A1E00003B
:4024C0005A1E0000E41E0000EE1E00009C1F00009C1F00009C1F0000A81F00003421000092200000922000009020000026210000262100001C210000902000002621000033
:402500001C21000026210000902000002C2100002C2100002C210000B621000043000000F8B5C046F8BC08BC9E46704741020000150B0000F8B5C046F8BC08BC9E46704777
:402540001902000058250000C800002080000000600100000000000000000000FFFF000000512502A08C00002400000000005046010000000000000000000000000000009D
:4025800000000000000000000000000000000000000000001C25000000000000000000000000000000000000000000000000000000000000000000000000000000000000DA
:4025C0000000000000000000000000000000000000000000E400002000000000000000000000000000000000000000000000000000000000000000000000000000000000D7
:40260000000000000000000000000000000000000000000000000000000000000000000000000000000000000000000000000000000000000000000000000000000000009A
:40264000000000000000000000000000000000000000000000000000000000000000000000000000000000000000000000000000000000000000000000000000000000005A
:40268000000000000000000000000000000000000000000000000000000000000000000000000000000000000000000000000000000000000000000000000000000000001A
:4026C00000000000000000000000000000000000000000000000000000000000000000000000000000000000000000000000000000000000000000000000000000000000DA
:0200000490303A
:0200000090ADC1
:0200000490402A
:200000000000000000000000000000000000000000000000000000000000000000000000E0
:0200000490501A
:0C000000000204C81193110104D4A240B6
:0200000490600A
:0100000001FE
:00000001FF