:400000000010002011000000E1020000E102000080B500AF00F06EF980B500AF0F4B0F4A12688021C9020A431A60182000F08AFA0A4B0A4A12680A490A401A60094B0A4AAC
:400040001A600A4B802212061A60044B00221A60074B00221A60C046BD4680BD00010B40FFFFFBFF04010B400600008008010B400C020B4080B582B000AF72B6FB1D00221F
:400080001A7022E0FB1D1A7813005B009B185B00314A9B183B603B681A78597809020A43997809040A43DB781B06134318003B681A795B791B0213439BB2190000F0B8F897
:4000C000FB1D1A78FB1D01321A70FB1D1B78012BD8D9224A224B1100180000F0B9F8214B07221A60204BEE2212021A601F4B992212041A601E4B802252021A601D4B99228D
:4001000012041A601C4A1C4B1B78DBB23C218B43DBB214210B43DBB21370184A174B1B78DBB216210B43DBB21370154B81221A60144B8022D2031A60134B01221A60134B58
:40014000D82212011A60FFF767FF00F0C3F8C046BD4602B080BDC046480800007008000054080000000001400C00014000500F4008500F4030500F4001700F4000700F40AD
:400180000000044008000440180004400803044010B5064C2378002B07D1054B002B02D0044800E000BF0123237010BD480100200000000044080000084B10B5002B03D0C8
:4001C0000749084800E000BF07480368002B00D110BD064B002BFBD09847F9E7000000004C01002044080000C80000200000000080B582B000AF00237B6000F06DF97B6849
:40020000180000F07BF9192000F09AFA00F0F0F8031EF8D17B6801337B607B68FF2B01D900237B607B68180000F068F9EBE7C04680B582B000AF786039603A687B6800219B
:40024000180000F0F7FAC046BD4602B080BDC04680B586B000AF7860396000233B6100237B612FE07B699B007A68D3181B68BB600F23FB18BA681A70BB68FF229343BB601F
:4002800018E03B695B003A68D3181B781A00BB68D31819003B695B003A68D3185B780B703B6901333B610F23FB181A780F23FB18013A1A700F23FB181B78002BE1D17B691E
:4002C00001337B617B69062BCCD9C046BD4606B080BDC04680B500AFC046BD4680BDC04680B500AF00F07AFA03001B680C2B00D1FEE7FEE780B586B000AF224B7B61224B92
:400300003B61204B7B6135E03B691B68FB603B695B68BB603B699B683B6000237B600CE0FB681A68BB681A60BB680433BB60FB680433FB607B6804337B607A683B689A4253
:40034000EED13B69DB683B6000237B6008E0BB6800221A60BB680433BB607B6804337B607A683B689A42F2D13B6910333B617B69013B7B617B69002BC6D100F035FAFFF7CF
:4003800037FFFEE701000000E408000080B582B000AF00237B600FE07B68032B04D8104B7A689200D35800E00E4B0F4A796889008B507B6801337B607B682F2BECD9FFF78A
:4003C00059FE0A4B00221A608023DB058022D205126801210A431A60C046BD4602B080BD00000000E102000000000020C000002080B500AF044B1B6880221340DB09DBB25F
:400400001800BD4680BDC0460400044090B583B000AFFC1D00F0DAF903002370174B1B68F02293433B60164B1B78DBB21A00F02313403A6813433B60104B3A681A60114BAE
:40044000104A12681A60104B0F4A12680F490A401A600C4B0B4A12688021C9040A431A60094B094A12681A60FB1D1B78180000F0B1F9C046BD4603B090BDC04600FF08403B
:4004800060F1FF0F0800084004000840FFFFFDFF90B583B000AFFC1D00F098F9030023700B4B0B4A1268C02189040A431A60094B084A1268802109060A431A60FB1D1B7854
:4004C000180000F087F9C046BD4603B090BDC046080008400400084080B500AF064B1B68002B04D1FFF792FF034B01221A60FFF7CFFFC046BD4680BD6401002090B585B096
:4005000000AF78600F23FC1800F060F9030023700A4B1B680A4A1A407B681B041343BB60064BBA681A600F23FB181B78180000F051F9C046BD4605B090BDC046080008409E
:40054000FFFF80FF90B585B000AF78600C23FC1800F03CF9030023707B68022B00D8AFE07B68302B00D9ABE05C4B1B78DBB21A007B689A420AD35A4A0F23FB1812781A706C
:40058000584A0E23FB1812781A703FE0564B1B78DBB21A007B689A420AD3544A0F23FB1812781A70524A0E23FB1812781A702DE0504B1B78DBB21A007B689A420AD34E4AAA
:4005C0000F23FB1812781A704C4A0E23FB1812781A701BE04A4B1B78DBB21A007B689A420AD3484A0F23FB1812781A70464A0E23FB1812781A7009E0444A0F23FB18127835
:400600001A70434A0E23FB1812781A707B68DA1E0B23FB183F498A5C1A700B23FB181B782F2B0DD97B682A2B0AD93B4B19221A60052000F0C1F80D23FB1819221A7007E010
:40064000354B1B68DAB20D23FB183F210A401A700B23FA180D23FB1812781B789A4208D22D4B7A68033A2B498A5C1A60052000F0A3F82A4B7A6826498C4662441278D2B2B7
:400680001A60274B0F22BA1812781A60254B0E22BA1812781A60052000F078F80B23FA180D23FB1812781B789A420CD91A4B7A68033A18498A5C1A60052000F07DF802E03A
:4006C000002000F031F80C23FB181B78180000F081F8C046BD4605B090BDC046C0F1FF0FC1F1FF0FC2F1FF0FC3F1FF0FC4F1FF0FC5F1FF0FC6F1FF0FC7F1FF0FC8F1FF0F7F
:40070000C9F1FF0FCAF1FF0FCBF1FF0FCCF1FF0FCDF1FF0F900800002CFF0B4028FF0B401CFF0B4020FF0B4080B582B000AF0200FB1D1A7001BEC046BD4602B080BDC04600
:4007400080B582B000AF786009E00D4B1B68180000F032F87B680B4A944663447B607A6880231B029A42F0D8074B1B687A685343180000F021F8C046BD4602B080BDC0464F
:40078000D80000200080FFFFD000002080B582B000AF0200BB1D1A80BB1D1B88044A12785343180000F008F8C046BD4602B080BDD4000020000000000230800804D0C046D8
:4007C0000138FDD1C046C046C0467047EFF3108072B6704780F310887047C046014B18687047C046400100200E4B70B500251E000D4CE41AA410A54204D0AB00F3589847CA
:400800000135F8E700F05CF8084B00251E00084CE41AA410A54204D0AB00F35898470135F8E770BDCC080000CC080000CC080000D408000003008218934202D01970013398
:40084000FAE770470000000000300F40000400400F40000404300F4002310F4002330F4002400F4002410F4002420F4002430F4038883E4458045F0118011B04AB04B4015D
:400880005720D440AB20EE207008DC01B408EC08030405060708090A0B0C0E0F101112131415161718191B1C1D1E1F2021222325262728292A2B2E2F30313233343543009C
:4008C000F8B5C046F8BC08BC9E467047B90100008D030000F8B5C046F8BC08BC9E46704791010000F8080000C80000208000000020000000000000000000000000366E0163
:40090000C05D0000180000000000E02E010000000000000000000000000000000000000000000000000000000000000000000000BE080000000000000000000000000000AD
:40094000000000000000000000000000000000000000000000000000000000000000000000000000000000000000000000000000E000002000000000000000000000000077
:400980000000000000000000000000000000000000000000000000000000000000000000000000000000000000000000000000000000000000000000000000000000000037
:4009C00000000000000000000000000000000000000000000000000000000000000000000000000000000000000000000000000000000000000000000000000000000000F7
:400A000000000000000000000000000000000000000000000000000000000000000000000000000000000000000000000000000000000000000000000000000000000000B6
:400A40000000000000000000000000000000000000000000000000000000000000000000000000000000000000000000000000000000000000000000000000000000000076
:0200000490303A
:02000000155F8A
:0200000490402A
:200000000000000000000000000000000000000000000000000000000000000000000000E0
:0200000490501A
:0C000000000204C81193110104CB26F289
:0200000490600A
:0100000001FE
:00000001FF